{
	"data": {
		"bytecode": {
			"linkReferences": {},
			"object": "608060405234801561000f575f80fd5b50610abc8061001d5f395ff3fe608060405234801561000f575f80fd5b5060043610610034575f3560e01c806348ca10cb146100385780636b5eb09c14610054575b5f80fd5b610052600480360381019061004d9190610587565b61008a565b005b61006e60048036038101906100699190610678565b6101bf565b604051610081979695949392919061073b565b60405180910390f35b6040518060e001604052808881526020018773ffffffffffffffffffffffffffffffffffffffff168152602001868152602001858152602001848152602001838152602001828152505f808873ffffffffffffffffffffffffffffffffffffffff1673ffffffffffffffffffffffffffffffffffffffff1681526020019081526020015f205f820151815f01556020820151816001015f6101000a81548173ffffffffffffffffffffffffffffffffffffffff021916908373ffffffffffffffffffffffffffffffffffffffff160217905550604082015181600201908161017291906109b7565b50606082015181600301908161018891906109b7565b50608082015181600401908161019e91906109b7565b5060a0820151816005015560c0820151816006015590505050505050505050565b5f602052805f5260405f205f91509050805f015490806001015f9054906101000a900473ffffffffffffffffffffffffffffffffffffffff1690806002018054610208906107ea565b80601f0160208091040260200160405190810160405280929190818152602001828054610234906107ea565b801561027f5780601f106102565761010080835404028352916020019161027f565b820191905f5260205f20905b81548152906001019060200180831161026257829003601f168201915b505050505090806003018054610294906107ea565b80601f01602080910402602001604051908101604052809291908181526020018280546102c0906107ea565b801561030b5780601f106102e25761010080835404028352916020019161030b565b820191905f5260205f20905b8154815290600101906020018083116102ee57829003601f168201915b505050505090806004018054610320906107ea565b80601f016020809104026020016040519081016040528092919081815260200182805461034c906107ea565b80156103975780601f1061036e57610100808354040283529160200191610397565b820191905f5260205f20905b81548152906001019060200180831161037a57829003601f168201915b5050505050908060050154908060060154905087565b5f604051905090565b5f80fd5b5f80fd5b5f819050919050565b6103d0816103be565b81146103da575f80fd5b50565b5f813590506103eb816103c7565b92915050565b5f73ffffffffffffffffffffffffffffffffffffffff82169050919050565b5f61041a826103f1565b9050919050565b61042a81610410565b8114610434575f80fd5b50565b5f8135905061044581610421565b92915050565b5f80fd5b5f80fd5b5f601f19601f8301169050919050565b7f4e487b71000000000000000000000000000000000000000000000000000000005f52604160045260245ffd5b61049982610453565b810181811067ffffffffffffffff821117156104b8576104b7610463565b5b80604052505050565b5f6104ca6103ad565b90506104d68282610490565b919050565b5f67ffffffffffffffff8211156104f5576104f4610463565b5b6104fe82610453565b9050602081019050919050565b828183375f83830152505050565b5f61052b610526846104db565b6104c1565b9050828152602081018484840111156105475761054661044f565b5b61055284828561050b565b509392505050565b5f82601f83011261056e5761056d61044b565b5b813561057e848260208601610519565b91505092915050565b5f805f805f805f60e0888a0312156105a2576105a16103b6565b5b5f6105af8a828b016103dd565b97505060206105c08a828b01610437565b965050604088013567ffffffffffffffff8111156105e1576105e06103ba565b5b6105ed8a828b0161055a565b955050606088013567ffffffffffffffff81111561060e5761060d6103ba565b5b61061a8a828b0161055a565b945050608088013567ffffffffffffffff81111561063b5761063a6103ba565b5b6106478a828b0161055a565b93505060a06106588a828b016103dd565b92505060c06106698a828b016103dd565b91505092959891949750929550565b5f6020828403121561068d5761068c6103b6565b5b5f61069a84828501610437565b91505092915050565b6106ac816103be565b82525050565b6106bb81610410565b82525050565b5f81519050919050565b5f82825260208201905092915050565b5f5b838110156106f85780820151818401526020810190506106dd565b5f8484015250505050565b5f61070d826106c1565b61071781856106cb565b93506107278185602086016106db565b61073081610453565b840191505092915050565b5f60e08201905061074e5f83018a6106a3565b61075b60208301896106b2565b818103604083015261076d8188610703565b905081810360608301526107818187610703565b905081810360808301526107958186610703565b90506107a460a08301856106a3565b6107b160c08301846106a3565b98975050505050505050565b7f4e487b71000000000000000000000000000000000000000000000000000000005f52602260045260245ffd5b5f600282049050600182168061080157607f821691505b602082108103610814576108136107bd565b5b50919050565b5f819050815f5260205f209050919050565b5f6020601f8301049050919050565b5f82821b905092915050565b5f600883026108767fffffffffffffffffffffffffffffffffffffffffffffffffffffffffffffffff8261083b565b610880868361083b565b95508019841693508086168417925050509392505050565b5f819050919050565b5f6108bb6108b66108b1846103be565b610898565b6103be565b9050919050565b5f819050919050565b6108d4836108a1565b6108e86108e0826108c2565b848454610847565b825550505050565b5f90565b6108fc6108f0565b6109078184846108cb565b505050565b5b8181101561092a5761091f5f826108f4565b60018101905061090d565b5050565b601f82111561096f576109408161081a565b6109498461082c565b81016020851015610958578190505b61096c6109648561082c565b83018261090c565b50505b505050565b5f82821c905092915050565b5f61098f5f1984600802610974565b1980831691505092915050565b5f6109a78383610980565b9150826002028217905092915050565b6109c0826106c1565b67ffffffffffffffff8111156109d9576109d8610463565b5b6109e382546107ea565b6109ee82828561092e565b5f60209050601f831160018114610a1f575f8415610a0d578287015190505b610a17858261099c565b865550610a7e565b601f198416610a2d8661081a565b5f5b82811015610a5457848901518255600182019150602085019450602081019050610a2f565b86831015610a715784890151610a6d601f891682610980565b8355505b6001600288020188555050505b50505050505056fea2646970667358221220a9a716d0ef9a9a741465d2a899484a2c59d608c4f079833979ca889e4ee0f49264736f6c63430008150033",
			"opcodes": "PUSH1 0x80 PUSH1 0x40 MSTORE CALLVALUE DUP1 ISZERO PUSH2 0xF JUMPI PUSH0 DUP1 REVERT JUMPDEST POP PUSH2 0xABC DUP1 PUSH2 0x1D PUSH0 CODECOPY PUSH0 RETURN INVALID PUSH1 0x80 PUSH1 0x40 MSTORE CALLVALUE DUP1 ISZERO PUSH2 0xF JUMPI PUSH0 DUP1 REVERT JUMPDEST POP PUSH1 0x4 CALLDATASIZE LT PUSH2 0x34 JUMPI PUSH0 CALLDATALOAD PUSH1 0xE0 SHR DUP1 PUSH4 0x48CA10CB EQ PUSH2 0x38 JUMPI DUP1 PUSH4 0x6B5EB09C EQ PUSH2 0x54 JUMPI JUMPDEST PUSH0 DUP1 REVERT JUMPDEST PUSH2 0x52 PUSH1 0x4 DUP1 CALLDATASIZE SUB DUP2 ADD SWAP1 PUSH2 0x4D SWAP2 SWAP1 PUSH2 0x587 JUMP JUMPDEST PUSH2 0x8A JUMP JUMPDEST STOP JUMPDEST PUSH2 0x6E PUSH1 0x4 DUP1 CALLDATASIZE SUB DUP2 ADD SWAP1 PUSH2 0x69 SWAP2 SWAP1 PUSH2 0x678 JUMP JUMPDEST PUSH2 0x1BF JUMP JUMPDEST PUSH1 0x40 MLOAD PUSH2 0x81 SWAP8 SWAP7 SWAP6 SWAP5 SWAP4 SWAP3 SWAP2 SWAP1 PUSH2 0x73B JUMP JUMPDEST PUSH1 0x40 MLOAD DUP1 SWAP2 SUB SWAP1 RETURN JUMPDEST PUSH1 0x40 MLOAD DUP1 PUSH1 0xE0 ADD PUSH1 0x40 MSTORE DUP1 DUP9 DUP2 MSTORE PUSH1 0x20 ADD DUP8 PUSH20 0xFFFFFFFFFFFFFFFFFFFFFFFFFFFFFFFFFFFFFFFF AND DUP2 MSTORE PUSH1 0x20 ADD DUP7 DUP2 MSTORE PUSH1 0x20 ADD DUP6 DUP2 MSTORE PUSH1 0x20 ADD DUP5 DUP2 MSTORE PUSH1 0x20 ADD DUP4 DUP2 MSTORE PUSH1 0x20 ADD DUP3 DUP2 MSTORE POP PUSH0 DUP1 DUP9 PUSH20 0xFFFFFFFFFFFFFFFFFFFFFFFFFFFFFFFFFFFFFFFF AND PUSH20 0xFFFFFFFFFFFFFFFFFFFFFFFFFFFFFFFFFFFFFFFF AND DUP2 MSTORE PUSH1 0x20 ADD SWAP1 DUP2 MSTORE PUSH1 0x20 ADD PUSH0 KECCAK256 PUSH0 DUP3 ADD MLOAD DUP2 PUSH0 ADD SSTORE PUSH1 0x20 DUP3 ADD MLOAD DUP2 PUSH1 0x1 ADD PUSH0 PUSH2 0x100 EXP DUP2 SLOAD DUP2 PUSH20 0xFFFFFFFFFFFFFFFFFFFFFFFFFFFFFFFFFFFFFFFF MUL NOT AND SWAP1 DUP4 PUSH20 0xFFFFFFFFFFFFFFFFFFFFFFFFFFFFFFFFFFFFFFFF AND MUL OR SWAP1 SSTORE POP PUSH1 0x40 DUP3 ADD MLOAD DUP2 PUSH1 0x2 ADD SWAP1 DUP2 PUSH2 0x172 SWAP2 SWAP1 PUSH2 0x9B7 JUMP JUMPDEST POP PUSH1 0x60 DUP3 ADD MLOAD DUP2 PUSH1 0x3 ADD SWAP1 DUP2 PUSH2 0x188 SWAP2 SWAP1 PUSH2 0x9B7 JUMP JUMPDEST POP PUSH1 0x80 DUP3 ADD MLOAD DUP2 PUSH1 0x4 ADD SWAP1 DUP2 PUSH2 0x19E SWAP2 SWAP1 PUSH2 0x9B7 JUMP JUMPDEST POP PUSH1 0xA0 DUP3 ADD MLOAD DUP2 PUSH1 0x5 ADD SSTORE PUSH1 0xC0 DUP3 ADD MLOAD DUP2 PUSH1 0x6 ADD SSTORE SWAP1 POP POP POP POP POP POP POP POP POP JUMP JUMPDEST PUSH0 PUSH1 0x20 MSTORE DUP1 PUSH0 MSTORE PUSH1 0x40 PUSH0 KECCAK256 PUSH0 SWAP2 POP SWAP1 POP DUP1 PUSH0 ADD SLOAD SWAP1 DUP1 PUSH1 0x1 ADD PUSH0 SWAP1 SLOAD SWAP1 PUSH2 0x100 EXP SWAP1 DIV PUSH20 0xFFFFFFFFFFFFFFFFFFFFFFFFFFFFFFFFFFFFFFFF AND SWAP1 DUP1 PUSH1 0x2 ADD DUP1 SLOAD PUSH2 0x208 SWAP1 PUSH2 0x7EA JUMP JUMPDEST DUP1 PUSH1 0x1F ADD PUSH1 0x20 DUP1 SWAP2 DIV MUL PUSH1 0x20 ADD PUSH1 0x40 MLOAD SWAP1 DUP2 ADD PUSH1 0x40 MSTORE DUP1 SWAP3 SWAP2 SWAP1 DUP2 DUP2 MSTORE PUSH1 0x20 ADD DUP3 DUP1 SLOAD PUSH2 0x234 SWAP1 PUSH2 0x7EA JUMP JUMPDEST DUP1 ISZERO PUSH2 0x27F JUMPI DUP1 PUSH1 0x1F LT PUSH2 0x256 JUMPI PUSH2 0x100 DUP1 DUP4 SLOAD DIV MUL DUP4 MSTORE SWAP2 PUSH1 0x20 ADD SWAP2 PUSH2 0x27F JUMP JUMPDEST DUP3 ADD SWAP2 SWAP1 PUSH0 MSTORE PUSH1 0x20 PUSH0 KECCAK256 SWAP1 JUMPDEST DUP2 SLOAD DUP2 MSTORE SWAP1 PUSH1 0x1 ADD SWAP1 PUSH1 0x20 ADD DUP1 DUP4 GT PUSH2 0x262 JUMPI DUP3 SWAP1 SUB PUSH1 0x1F AND DUP3 ADD SWAP2 JUMPDEST POP POP POP POP POP SWAP1 DUP1 PUSH1 0x3 ADD DUP1 SLOAD PUSH2 0x294 SWAP1 PUSH2 0x7EA JUMP JUMPDEST DUP1 PUSH1 0x1F ADD PUSH1 0x20 DUP1 SWAP2 DIV MUL PUSH1 0x20 ADD PUSH1 0x40 MLOAD SWAP1 DUP2 ADD PUSH1 0x40 MSTORE DUP1 SWAP3 SWAP2 SWAP1 DUP2 DUP2 MSTORE PUSH1 0x20 ADD DUP3 DUP1 SLOAD PUSH2 0x2C0 SWAP1 PUSH2 0x7EA JUMP JUMPDEST DUP1 ISZERO PUSH2 0x30B JUMPI DUP1 PUSH1 0x1F LT PUSH2 0x2E2 JUMPI PUSH2 0x100 DUP1 DUP4 SLOAD DIV MUL DUP4 MSTORE SWAP2 PUSH1 0x20 ADD SWAP2 PUSH2 0x30B JUMP JUMPDEST DUP3 ADD SWAP2 SWAP1 PUSH0 MSTORE PUSH1 0x20 PUSH0 KECCAK256 SWAP1 JUMPDEST DUP2 SLOAD DUP2 MSTORE SWAP1 PUSH1 0x1 ADD SWAP1 PUSH1 0x20 ADD DUP1 DUP4 GT PUSH2 0x2EE JUMPI DUP3 SWAP1 SUB PUSH1 0x1F AND DUP3 ADD SWAP2 JUMPDEST POP POP POP POP POP SWAP1 DUP1 PUSH1 0x4 ADD DUP1 SLOAD PUSH2 0x320 SWAP1 PUSH2 0x7EA JUMP JUMPDEST DUP1 PUSH1 0x1F ADD PUSH1 0x20 DUP1 SWAP2 DIV MUL PUSH1 0x20 ADD PUSH1 0x40 MLOAD SWAP1 DUP2 ADD PUSH1 0x40 MSTORE DUP1 SWAP3 SWAP2 SWAP1 DUP2 DUP2 MSTORE PUSH1 0x20 ADD DUP3 DUP1 SLOAD PUSH2 0x34C SWAP1 PUSH2 0x7EA JUMP JUMPDEST DUP1 ISZERO PUSH2 0x397 JUMPI DUP1 PUSH1 0x1F LT PUSH2 0x36E JUMPI PUSH2 0x100 DUP1 DUP4 SLOAD DIV MUL DUP4 MSTORE SWAP2 PUSH1 0x20 ADD SWAP2 PUSH2 0x397 JUMP JUMPDEST DUP3 ADD SWAP2 SWAP1 PUSH0 MSTORE PUSH1 0x20 PUSH0 KECCAK256 SWAP1 JUMPDEST DUP2 SLOAD DUP2 MSTORE SWAP1 PUSH1 0x1 ADD SWAP1 PUSH1 0x20 ADD DUP1 DUP4 GT PUSH2 0x37A JUMPI DUP3 SWAP1 SUB PUSH1 0x1F AND DUP3 ADD SWAP2 JUMPDEST POP POP POP POP POP SWAP1 DUP1 PUSH1 0x5 ADD SLOAD SWAP1 DUP1 PUSH1 0x6 ADD SLOAD SWAP1 POP DUP8 JUMP JUMPDEST PUSH0 PUSH1 0x40 MLOAD SWAP1 POP SWAP1 JUMP JUMPDEST PUSH0 DUP1 REVERT JUMPDEST PUSH0 DUP1 REVERT JUMPDEST PUSH0 DUP2 SWAP1 POP SWAP2 SWAP1 POP JUMP JUMPDEST PUSH2 0x3D0 DUP2 PUSH2 0x3BE JUMP JUMPDEST DUP2 EQ PUSH2 0x3DA JUMPI PUSH0 DUP1 REVERT JUMPDEST POP JUMP JUMPDEST PUSH0 DUP2 CALLDATALOAD SWAP1 POP PUSH2 0x3EB DUP2 PUSH2 0x3C7 JUMP JUMPDEST SWAP3 SWAP2 POP POP JUMP JUMPDEST PUSH0 PUSH20 0xFFFFFFFFFFFFFFFFFFFFFFFFFFFFFFFFFFFFFFFF DUP3 AND SWAP1 POP SWAP2 SWAP1 POP JUMP JUMPDEST PUSH0 PUSH2 0x41A DUP3 PUSH2 0x3F1 JUMP JUMPDEST SWAP1 POP SWAP2 SWAP1 POP JUMP JUMPDEST PUSH2 0x42A DUP2 PUSH2 0x410 JUMP JUMPDEST DUP2 EQ PUSH2 0x434 JUMPI PUSH0 DUP1 REVERT JUMPDEST POP JUMP JUMPDEST PUSH0 DUP2 CALLDATALOAD SWAP1 POP PUSH2 0x445 DUP2 PUSH2 0x421 JUMP JUMPDEST SWAP3 SWAP2 POP POP JUMP JUMPDEST PUSH0 DUP1 REVERT JUMPDEST PUSH0 DUP1 REVERT JUMPDEST PUSH0 PUSH1 0x1F NOT PUSH1 0x1F DUP4 ADD AND SWAP1 POP SWAP2 SWAP1 POP JUMP JUMPDEST PUSH32 0x4E487B7100000000000000000000000000000000000000000000000000000000 PUSH0 MSTORE PUSH1 0x41 PUSH1 0x4 MSTORE PUSH1 0x24 PUSH0 REVERT JUMPDEST PUSH2 0x499 DUP3 PUSH2 0x453 JUMP JUMPDEST DUP2 ADD DUP2 DUP2 LT PUSH8 0xFFFFFFFFFFFFFFFF DUP3 GT OR ISZERO PUSH2 0x4B8 JUMPI PUSH2 0x4B7 PUSH2 0x463 JUMP JUMPDEST JUMPDEST DUP1 PUSH1 0x40 MSTORE POP POP POP JUMP JUMPDEST PUSH0 PUSH2 0x4CA PUSH2 0x3AD JUMP JUMPDEST SWAP1 POP PUSH2 0x4D6 DUP3 DUP3 PUSH2 0x490 JUMP JUMPDEST SWAP2 SWAP1 POP JUMP JUMPDEST PUSH0 PUSH8 0xFFFFFFFFFFFFFFFF DUP3 GT ISZERO PUSH2 0x4F5 JUMPI PUSH2 0x4F4 PUSH2 0x463 JUMP JUMPDEST JUMPDEST PUSH2 0x4FE DUP3 PUSH2 0x453 JUMP JUMPDEST SWAP1 POP PUSH1 0x20 DUP2 ADD SWAP1 POP SWAP2 SWAP1 POP JUMP JUMPDEST DUP3 DUP2 DUP4 CALLDATACOPY PUSH0 DUP4 DUP4 ADD MSTORE POP POP POP JUMP JUMPDEST PUSH0 PUSH2 0x52B PUSH2 0x526 DUP5 PUSH2 0x4DB JUMP JUMPDEST PUSH2 0x4C1 JUMP JUMPDEST SWAP1 POP DUP3 DUP2 MSTORE PUSH1 0x20 DUP2 ADD DUP5 DUP5 DUP5 ADD GT ISZERO PUSH2 0x547 JUMPI PUSH2 0x546 PUSH2 0x44F JUMP JUMPDEST JUMPDEST PUSH2 0x552 DUP5 DUP3 DUP6 PUSH2 0x50B JUMP JUMPDEST POP SWAP4 SWAP3 POP POP POP JUMP JUMPDEST PUSH0 DUP3 PUSH1 0x1F DUP4 ADD SLT PUSH2 0x56E JUMPI PUSH2 0x56D PUSH2 0x44B JUMP JUMPDEST JUMPDEST DUP2 CALLDATALOAD PUSH2 0x57E DUP5 DUP3 PUSH1 0x20 DUP7 ADD PUSH2 0x519 JUMP JUMPDEST SWAP2 POP POP SWAP3 SWAP2 POP POP JUMP JUMPDEST PUSH0 DUP1 PUSH0 DUP1 PUSH0 DUP1 PUSH0 PUSH1 0xE0 DUP9 DUP11 SUB SLT ISZERO PUSH2 0x5A2 JUMPI PUSH2 0x5A1 PUSH2 0x3B6 JUMP JUMPDEST JUMPDEST PUSH0 PUSH2 0x5AF DUP11 DUP3 DUP12 ADD PUSH2 0x3DD JUMP JUMPDEST SWAP8 POP POP PUSH1 0x20 PUSH2 0x5C0 DUP11 DUP3 DUP12 ADD PUSH2 0x437 JUMP JUMPDEST SWAP7 POP POP PUSH1 0x40 DUP9 ADD CALLDATALOAD PUSH8 0xFFFFFFFFFFFFFFFF DUP2 GT ISZERO PUSH2 0x5E1 JUMPI PUSH2 0x5E0 PUSH2 0x3BA JUMP JUMPDEST JUMPDEST PUSH2 0x5ED DUP11 DUP3 DUP12 ADD PUSH2 0x55A JUMP JUMPDEST SWAP6 POP POP PUSH1 0x60 DUP9 ADD CALLDATALOAD PUSH8 0xFFFFFFFFFFFFFFFF DUP2 GT ISZERO PUSH2 0x60E JUMPI PUSH2 0x60D PUSH2 0x3BA JUMP JUMPDEST JUMPDEST PUSH2 0x61A DUP11 DUP3 DUP12 ADD PUSH2 0x55A JUMP JUMPDEST SWAP5 POP POP PUSH1 0x80 DUP9 ADD CALLDATALOAD PUSH8 0xFFFFFFFFFFFFFFFF DUP2 GT ISZERO PUSH2 0x63B JUMPI PUSH2 0x63A PUSH2 0x3BA JUMP JUMPDEST JUMPDEST PUSH2 0x647 DUP11 DUP3 DUP12 ADD PUSH2 0x55A JUMP JUMPDEST SWAP4 POP POP PUSH1 0xA0 PUSH2 0x658 DUP11 DUP3 DUP12 ADD PUSH2 0x3DD JUMP JUMPDEST SWAP3 POP POP PUSH1 0xC0 PUSH2 0x669 DUP11 DUP3 DUP12 ADD PUSH2 0x3DD JUMP JUMPDEST SWAP2 POP POP SWAP3 SWAP6 SWAP9 SWAP2 SWAP5 SWAP8 POP SWAP3 SWAP6 POP JUMP JUMPDEST PUSH0 PUSH1 0x20 DUP3 DUP5 SUB SLT ISZERO PUSH2 0x68D JUMPI PUSH2 0x68C PUSH2 0x3B6 JUMP JUMPDEST JUMPDEST PUSH0 PUSH2 0x69A DUP5 DUP3 DUP6 ADD PUSH2 0x437 JUMP JUMPDEST SWAP2 POP POP SWAP3 SWAP2 POP POP JUMP JUMPDEST PUSH2 0x6AC DUP2 PUSH2 0x3BE JUMP JUMPDEST DUP3 MSTORE POP POP JUMP JUMPDEST PUSH2 0x6BB DUP2 PUSH2 0x410 JUMP JUMPDEST DUP3 MSTORE POP POP JUMP JUMPDEST PUSH0 DUP2 MLOAD SWAP1 POP SWAP2 SWAP1 POP JUMP JUMPDEST PUSH0 DUP3 DUP3 MSTORE PUSH1 0x20 DUP3 ADD SWAP1 POP SWAP3 SWAP2 POP POP JUMP JUMPDEST PUSH0 JUMPDEST DUP4 DUP2 LT ISZERO PUSH2 0x6F8 JUMPI DUP1 DUP3 ADD MLOAD DUP2 DUP5 ADD MSTORE PUSH1 0x20 DUP2 ADD SWAP1 POP PUSH2 0x6DD JUMP JUMPDEST PUSH0 DUP5 DUP5 ADD MSTORE POP POP POP POP JUMP JUMPDEST PUSH0 PUSH2 0x70D DUP3 PUSH2 0x6C1 JUMP JUMPDEST PUSH2 0x717 DUP2 DUP6 PUSH2 0x6CB JUMP JUMPDEST SWAP4 POP PUSH2 0x727 DUP2 DUP6 PUSH1 0x20 DUP7 ADD PUSH2 0x6DB JUMP JUMPDEST PUSH2 0x730 DUP2 PUSH2 0x453 JUMP JUMPDEST DUP5 ADD SWAP2 POP POP SWAP3 SWAP2 POP POP JUMP JUMPDEST PUSH0 PUSH1 0xE0 DUP3 ADD SWAP1 POP PUSH2 0x74E PUSH0 DUP4 ADD DUP11 PUSH2 0x6A3 JUMP JUMPDEST PUSH2 0x75B PUSH1 0x20 DUP4 ADD DUP10 PUSH2 0x6B2 JUMP JUMPDEST DUP2 DUP2 SUB PUSH1 0x40 DUP4 ADD MSTORE PUSH2 0x76D DUP2 DUP9 PUSH2 0x703 JUMP JUMPDEST SWAP1 POP DUP2 DUP2 SUB PUSH1 0x60 DUP4 ADD MSTORE PUSH2 0x781 DUP2 DUP8 PUSH2 0x703 JUMP JUMPDEST SWAP1 POP DUP2 DUP2 SUB PUSH1 0x80 DUP4 ADD MSTORE PUSH2 0x795 DUP2 DUP7 PUSH2 0x703 JUMP JUMPDEST SWAP1 POP PUSH2 0x7A4 PUSH1 0xA0 DUP4 ADD DUP6 PUSH2 0x6A3 JUMP JUMPDEST PUSH2 0x7B1 PUSH1 0xC0 DUP4 ADD DUP5 PUSH2 0x6A3 JUMP JUMPDEST SWAP9 SWAP8 POP POP POP POP POP POP POP POP JUMP JUMPDEST PUSH32 0x4E487B7100000000000000000000000000000000000000000000000000000000 PUSH0 MSTORE PUSH1 0x22 PUSH1 0x4 MSTORE PUSH1 0x24 PUSH0 REVERT JUMPDEST PUSH0 PUSH1 0x2 DUP3 DIV SWAP1 POP PUSH1 0x1 DUP3 AND DUP1 PUSH2 0x801 JUMPI PUSH1 0x7F DUP3 AND SWAP2 POP JUMPDEST PUSH1 0x20 DUP3 LT DUP2 SUB PUSH2 0x814 JUMPI PUSH2 0x813 PUSH2 0x7BD JUMP JUMPDEST JUMPDEST POP SWAP2 SWAP1 POP JUMP JUMPDEST PUSH0 DUP2 SWAP1 POP DUP2 PUSH0 MSTORE PUSH1 0x20 PUSH0 KECCAK256 SWAP1 POP SWAP2 SWAP1 POP JUMP JUMPDEST PUSH0 PUSH1 0x20 PUSH1 0x1F DUP4 ADD DIV SWAP1 POP SWAP2 SWAP1 POP JUMP JUMPDEST PUSH0 DUP3 DUP3 SHL SWAP1 POP SWAP3 SWAP2 POP POP JUMP JUMPDEST PUSH0 PUSH1 0x8 DUP4 MUL PUSH2 0x876 PUSH32 0xFFFFFFFFFFFFFFFFFFFFFFFFFFFFFFFFFFFFFFFFFFFFFFFFFFFFFFFFFFFFFFFF DUP3 PUSH2 0x83B JUMP JUMPDEST PUSH2 0x880 DUP7 DUP4 PUSH2 0x83B JUMP JUMPDEST SWAP6 POP DUP1 NOT DUP5 AND SWAP4 POP DUP1 DUP7 AND DUP5 OR SWAP3 POP POP POP SWAP4 SWAP3 POP POP POP JUMP JUMPDEST PUSH0 DUP2 SWAP1 POP SWAP2 SWAP1 POP JUMP JUMPDEST PUSH0 PUSH2 0x8BB PUSH2 0x8B6 PUSH2 0x8B1 DUP5 PUSH2 0x3BE JUMP JUMPDEST PUSH2 0x898 JUMP JUMPDEST PUSH2 0x3BE JUMP JUMPDEST SWAP1 POP SWAP2 SWAP1 POP JUMP JUMPDEST PUSH0 DUP2 SWAP1 POP SWAP2 SWAP1 POP JUMP JUMPDEST PUSH2 0x8D4 DUP4 PUSH2 0x8A1 JUMP JUMPDEST PUSH2 0x8E8 PUSH2 0x8E0 DUP3 PUSH2 0x8C2 JUMP JUMPDEST DUP5 DUP5 SLOAD PUSH2 0x847 JUMP JUMPDEST DUP3 SSTORE POP POP POP POP JUMP JUMPDEST PUSH0 SWAP1 JUMP JUMPDEST PUSH2 0x8FC PUSH2 0x8F0 JUMP JUMPDEST PUSH2 0x907 DUP2 DUP5 DUP5 PUSH2 0x8CB JUMP JUMPDEST POP POP POP JUMP JUMPDEST JUMPDEST DUP2 DUP2 LT ISZERO PUSH2 0x92A JUMPI PUSH2 0x91F PUSH0 DUP3 PUSH2 0x8F4 JUMP JUMPDEST PUSH1 0x1 DUP2 ADD SWAP1 POP PUSH2 0x90D JUMP JUMPDEST POP POP JUMP JUMPDEST PUSH1 0x1F DUP3 GT ISZERO PUSH2 0x96F JUMPI PUSH2 0x940 DUP2 PUSH2 0x81A JUMP JUMPDEST PUSH2 0x949 DUP5 PUSH2 0x82C JUMP JUMPDEST DUP2 ADD PUSH1 0x20 DUP6 LT ISZERO PUSH2 0x958 JUMPI DUP2 SWAP1 POP JUMPDEST PUSH2 0x96C PUSH2 0x964 DUP6 PUSH2 0x82C JUMP JUMPDEST DUP4 ADD DUP3 PUSH2 0x90C JUMP JUMPDEST POP POP JUMPDEST POP POP POP JUMP JUMPDEST PUSH0 DUP3 DUP3 SHR SWAP1 POP SWAP3 SWAP2 POP POP JUMP JUMPDEST PUSH0 PUSH2 0x98F PUSH0 NOT DUP5 PUSH1 0x8 MUL PUSH2 0x974 JUMP JUMPDEST NOT DUP1 DUP4 AND SWAP2 POP POP SWAP3 SWAP2 POP POP JUMP JUMPDEST PUSH0 PUSH2 0x9A7 DUP4 DUP4 PUSH2 0x980 JUMP JUMPDEST SWAP2 POP DUP3 PUSH1 0x2 MUL DUP3 OR SWAP1 POP SWAP3 SWAP2 POP POP JUMP JUMPDEST PUSH2 0x9C0 DUP3 PUSH2 0x6C1 JUMP JUMPDEST PUSH8 0xFFFFFFFFFFFFFFFF DUP2 GT ISZERO PUSH2 0x9D9 JUMPI PUSH2 0x9D8 PUSH2 0x463 JUMP JUMPDEST JUMPDEST PUSH2 0x9E3 DUP3 SLOAD PUSH2 0x7EA JUMP JUMPDEST PUSH2 0x9EE DUP3 DUP3 DUP6 PUSH2 0x92E JUMP JUMPDEST PUSH0 PUSH1 0x20 SWAP1 POP PUSH1 0x1F DUP4 GT PUSH1 0x1 DUP2 EQ PUSH2 0xA1F JUMPI PUSH0 DUP5 ISZERO PUSH2 0xA0D JUMPI DUP3 DUP8 ADD MLOAD SWAP1 POP JUMPDEST PUSH2 0xA17 DUP6 DUP3 PUSH2 0x99C JUMP JUMPDEST DUP7 SSTORE POP PUSH2 0xA7E JUMP JUMPDEST PUSH1 0x1F NOT DUP5 AND PUSH2 0xA2D DUP7 PUSH2 0x81A JUMP JUMPDEST PUSH0 JUMPDEST DUP3 DUP2 LT ISZERO PUSH2 0xA54 JUMPI DUP5 DUP10 ADD MLOAD DUP3 SSTORE PUSH1 0x1 DUP3 ADD SWAP2 POP PUSH1 0x20 DUP6 ADD SWAP5 POP PUSH1 0x20 DUP2 ADD SWAP1 POP PUSH2 0xA2F JUMP JUMPDEST DUP7 DUP4 LT ISZERO PUSH2 0xA71 JUMPI DUP5 DUP10 ADD MLOAD PUSH2 0xA6D PUSH1 0x1F DUP10 AND DUP3 PUSH2 0x980 JUMP JUMPDEST DUP4 SSTORE POP JUMPDEST PUSH1 0x1 PUSH1 0x2 DUP9 MUL ADD DUP9 SSTORE POP POP POP JUMPDEST POP POP POP POP POP POP JUMP INVALID LOG2 PUSH5 0x6970667358 0x22 SLT KECCAK256 0xA9 0xA7 AND 0xD0 0xEF SWAP11 SWAP11 PUSH21 0x1465D2A899484A2C59D608C4F079833979CA889E4E 0xE0 DELEGATECALL SWAP3 PUSH5 0x736F6C6343 STOP ADDMOD ISZERO STOP CALLER "
		},
		"gasEstimates": {
			"creation": {
				"codeDepositCost": "549600",
				"executionCost": "579",
				"totalCost": "550179"
			},
			"external": {
				"manufacturers(address)": "infinite",
				"setManufacturer(uint256,address,string,string,string,uint256,uint256)": "infinite"
			}
		},
		"methodIdentifiers": {
			"manufacturers(address)": "6b5eb09c",
			"setManufacturer(uint256,address,string,string,string,uint256,uint256)": "48ca10cb"
		}
	},
	"abi": [
		{
			"inputs": [
				{
					"internalType": "address",
					"name": "",
					"type": "address"
				}
			],
			"name": "manufacturers",
			"outputs": [
				{
					"internalType": "uint256",
					"name": "id",
					"type": "uint256"
				},
				{
					"internalType": "address",
					"name": "tokenId",
					"type": "address"
				},
				{
					"internalType": "string",
					"name": "name",
					"type": "string"
				},
				{
					"internalType": "string",
					"name": "model",
					"type": "string"
				},
				{
					"internalType": "string",
					"name": "color",
					"type": "string"
				},
				{
					"internalType": "uint256",
					"name": "year",
					"type": "uint256"
				},
				{
					"internalType": "uint256",
					"name": "price",
					"type": "uint256"
				}
			],
			"stateMutability": "view",
			"type": "function"
		},
		{
			"inputs": [
				{
					"internalType": "uint256",
					"name": "id",
					"type": "uint256"
				},
				{
					"internalType": "address",
					"name": "tokenId",
					"type": "address"
				},
				{
					"internalType": "string",
					"name": "name",
					"type": "string"
				},
				{
					"internalType": "string",
					"name": "model",
					"type": "string"
				},
				{
					"internalType": "string",
					"name": "color",
					"type": "string"
				},
				{
					"internalType": "uint256",
					"name": "year",
					"type": "uint256"
				},
				{
					"internalType": "uint256",
					"name": "price",
					"type": "uint256"
				}
			],
			"name": "setManufacturer",
			"outputs": [],
			"stateMutability": "nonpayable",
			"type": "function"
		}
	]
}