{
	"data": {
		"bytecode": {
			"linkReferences": {},
			"object": "60806040526040518060600160405280600160ff168152602001600260ff168152602001600360ff168152505f9060036200003c92919062000191565b5060405180606001604052806040518060400160405280600581526020017f6d616e676f00000000000000000000000000000000000000000000000000000081525081526020016040518060400160405280600681526020017f62616e616e61000000000000000000000000000000000000000000000000000081525081526020016040518060400160405280600581526020017f6170706c65000000000000000000000000000000000000000000000000000000815250815250600190600362000109929190620001e6565b5060405180604001604052806040518060600160405280600160ff168152602001600260ff168152602001600360ff1681525081526020016040518060600160405280600460ff168152602001600560ff168152602001600660ff1681525081525060029060026200017d92919062000244565b503480156200018a575f80fd5b50620006ba565b828054828255905f5260205f20908101928215620001d3579160200282015b82811115620001d2578251829060ff16905591602001919060010190620001b0565b5b509050620001e29190620002a4565b5090565b828054828255905f5260205f2090810192821562000231579160200282015b82811115620002305782518290816200021f9190620005d6565b509160200191906001019062000205565b5b509050620002409190620002c1565b5090565b828054828255905f5260205f2090810192821562000291579160200282015b8281111562000290578251829060036200027f92919062000191565b509160200191906001019062000263565b5b509050620002a09190620002e8565b5090565b5b80821115620002bd575f815f905550600101620002a5565b5090565b5b80821115620002e4575f8181620002da91906200030f565b50600101620002c2565b5090565b5b808211156200030b575f818162000301919062000352565b50600101620002e9565b5090565b5080546200031d90620003d6565b5f825580601f106200033057506200034f565b601f0160209004905f5260205f20908101906200034e9190620002a4565b5b50565b5080545f8255905f5260205f20908101906200036f9190620002a4565b50565b5f81519050919050565b7f4e487b71000000000000000000000000000000000000000000000000000000005f52604160045260245ffd5b7f4e487b71000000000000000000000000000000000000000000000000000000005f52602260045260245ffd5b5f6002820490506001821680620003ee57607f821691505b602082108103620004045762000403620003a9565b5b50919050565b5f819050815f5260205f209050919050565b5f6020601f8301049050919050565b5f82821b905092915050565b5f60088302620004687fffffffffffffffffffffffffffffffffffffffffffffffffffffffffffffffff826200042b565b6200047486836200042b565b95508019841693508086168417925050509392505050565b5f819050919050565b5f819050919050565b5f620004be620004b8620004b2846200048c565b62000495565b6200048c565b9050919050565b5f819050919050565b620004d9836200049e565b620004f1620004e882620004c5565b84845462000437565b825550505050565b5f90565b62000507620004f9565b62000514818484620004ce565b505050565b5b818110156200053b576200052f5f82620004fd565b6001810190506200051a565b5050565b601f8211156200058a5762000554816200040a565b6200055f846200041c565b810160208510156200056f578190505b620005876200057e856200041c565b83018262000519565b50505b505050565b5f82821c905092915050565b5f620005ac5f19846008026200058f565b1980831691505092915050565b5f620005c683836200059b565b9150826002028217905092915050565b620005e18262000372565b67ffffffffffffffff811115620005fd57620005fc6200037c565b5b620006098254620003d6565b620006168282856200053f565b5f60209050601f8311600181146200064c575f841562000637578287015190505b620006438582620005b9565b865550620006b2565b601f1984166200065c866200040a565b5f5b8281101562000685578489015182556001820191506020850194506020810190506200065e565b86831015620006a55784890151620006a1601f8916826200059b565b8355505b6001600288020188555050505b505050505050565b61093180620006c85f395ff3fe608060405234801561000f575f80fd5b5060043610610060575f3560e01c80630849cc99146100645780633a5fbaaa1461008257806357d563381461009e5780636987b1fb146100ce57806371e5ee5f146100fe578063c41721621461012e575b5f80fd5b61006c61015e565b6040516100799190610358565b60405180910390f35b61009c600480360381019061009791906104be565b61016a565b005b6100b860048036038101906100b3919061052f565b61019f565b6040516100c59190610358565b60405180910390f35b6100e860048036038101906100e3919061056d565b6101d5565b6040516100f59190610612565b60405180910390f35b6101186004803603810190610113919061056d565b61027b565b6040516101259190610358565b60405180910390f35b6101486004803603810190610143919061056d565b61029a565b6040516101559190610612565b60405180910390f35b5f600380549050905090565b600381908060018154018082558091505060019003905f5260205f20015f90919091909150908161019b919061082c565b5050565b600282815481106101ae575f80fd5b905f5260205f200181815481106101c3575f80fd5b905f5260205f20015f91509150505481565b600381815481106101e4575f80fd5b905f5260205f20015f9150905080546101fc9061065f565b80601f01602080910402602001604051908101604052809291908181526020018280546102289061065f565b80156102735780601f1061024a57610100808354040283529160200191610273565b820191905f5260205f20905b81548152906001019060200180831161025657829003601f168201915b505050505081565b5f8181548110610289575f80fd5b905f5260205f20015f915090505481565b600181815481106102a9575f80fd5b905f5260205f20015f9150905080546102c19061065f565b80601f01602080910402602001604051908101604052809291908181526020018280546102ed9061065f565b80156103385780601f1061030f57610100808354040283529160200191610338565b820191905f5260205f20905b81548152906001019060200180831161031b57829003601f168201915b505050505081565b5f819050919050565b61035281610340565b82525050565b5f60208201905061036b5f830184610349565b92915050565b5f604051905090565b5f80fd5b5f80fd5b5f80fd5b5f80fd5b5f601f19601f8301169050919050565b7f4e487b71000000000000000000000000000000000000000000000000000000005f52604160045260245ffd5b6103d08261038a565b810181811067ffffffffffffffff821117156103ef576103ee61039a565b5b80604052505050565b5f610401610371565b905061040d82826103c7565b919050565b5f67ffffffffffffffff82111561042c5761042b61039a565b5b6104358261038a565b9050602081019050919050565b828183375f83830152505050565b5f61046261045d84610412565b6103f8565b90508281526020810184848401111561047e5761047d610386565b5b610489848285610442565b509392505050565b5f82601f8301126104a5576104a4610382565b5b81356104b5848260208601610450565b91505092915050565b5f602082840312156104d3576104d261037a565b5b5f82013567ffffffffffffffff8111156104f0576104ef61037e565b5b6104fc84828501610491565b91505092915050565b61050e81610340565b8114610518575f80fd5b50565b5f8135905061052981610505565b92915050565b5f80604083850312156105455761054461037a565b5b5f6105528582860161051b565b92505060206105638582860161051b565b9150509250929050565b5f602082840312156105825761058161037a565b5b5f61058f8482850161051b565b91505092915050565b5f81519050919050565b5f82825260208201905092915050565b5f5b838110156105cf5780820151818401526020810190506105b4565b5f8484015250505050565b5f6105e482610598565b6105ee81856105a2565b93506105fe8185602086016105b2565b6106078161038a565b840191505092915050565b5f6020820190508181035f83015261062a81846105da565b905092915050565b7f4e487b71000000000000000000000000000000000000000000000000000000005f52602260045260245ffd5b5f600282049050600182168061067657607f821691505b60208210810361068957610688610632565b5b50919050565b5f819050815f5260205f209050919050565b5f6020601f8301049050919050565b5f82821b905092915050565b5f600883026106eb7fffffffffffffffffffffffffffffffffffffffffffffffffffffffffffffffff826106b0565b6106f586836106b0565b95508019841693508086168417925050509392505050565b5f819050919050565b5f61073061072b61072684610340565b61070d565b610340565b9050919050565b5f819050919050565b61074983610716565b61075d61075582610737565b8484546106bc565b825550505050565b5f90565b610771610765565b61077c818484610740565b505050565b5b8181101561079f576107945f82610769565b600181019050610782565b5050565b601f8211156107e4576107b58161068f565b6107be846106a1565b810160208510156107cd578190505b6107e16107d9856106a1565b830182610781565b50505b505050565b5f82821c905092915050565b5f6108045f19846008026107e9565b1980831691505092915050565b5f61081c83836107f5565b9150826002028217905092915050565b61083582610598565b67ffffffffffffffff81111561084e5761084d61039a565b5b610858825461065f565b6108638282856107a3565b5f60209050601f831160018114610894575f8415610882578287015190505b61088c8582610811565b8655506108f3565b601f1984166108a28661068f565b5f5b828110156108c9578489015182556001820191506020850194506020810190506108a4565b868310156108e657848901516108e2601f8916826107f5565b8355505b6001600288020188555050505b50505050505056fea26469706673582212204d8e28fc01c36d24ef0fccc633bd4cdd37f051270a6a22745c8d2d23d4ece59164736f6c63430008150033",
			"opcodes": "PUSH1 0x80 PUSH1 0x40 MSTORE PUSH1 0x40 MLOAD DUP1 PUSH1 0x60 ADD PUSH1 0x40 MSTORE DUP1 PUSH1 0x1 PUSH1 0xFF AND DUP2 MSTORE PUSH1 0x20 ADD PUSH1 0x2 PUSH1 0xFF AND DUP2 MSTORE PUSH1 0x20 ADD PUSH1 0x3 PUSH1 0xFF AND DUP2 MSTORE POP PUSH0 SWAP1 PUSH1 0x3 PUSH3 0x3C SWAP3 SWAP2 SWAP1 PUSH3 0x191 JUMP JUMPDEST POP PUSH1 0x40 MLOAD DUP1 PUSH1 0x60 ADD PUSH1 0x40 MSTORE DUP1 PUSH1 0x40 MLOAD DUP1 PUSH1 0x40 ADD PUSH1 0x40 MSTORE DUP1 PUSH1 0x5 DUP2 MSTORE PUSH1 0x20 ADD PUSH32 0x6D616E676F000000000000000000000000000000000000000000000000000000 DUP2 MSTORE POP DUP2 MSTORE PUSH1 0x20 ADD PUSH1 0x40 MLOAD DUP1 PUSH1 0x40 ADD PUSH1 0x40 MSTORE DUP1 PUSH1 0x6 DUP2 MSTORE PUSH1 0x20 ADD PUSH32 0x62616E616E610000000000000000000000000000000000000000000000000000 DUP2 MSTORE POP DUP2 MSTORE PUSH1 0x20 ADD PUSH1 0x40 MLOAD DUP1 PUSH1 0x40 ADD PUSH1 0x40 MSTORE DUP1 PUSH1 0x5 DUP2 MSTORE PUSH1 0x20 ADD PUSH32 0x6170706C65000000000000000000000000000000000000000000000000000000 DUP2 MSTORE POP DUP2 MSTORE POP PUSH1 0x1 SWAP1 PUSH1 0x3 PUSH3 0x109 SWAP3 SWAP2 SWAP1 PUSH3 0x1E6 JUMP JUMPDEST POP PUSH1 0x40 MLOAD DUP1 PUSH1 0x40 ADD PUSH1 0x40 MSTORE DUP1 PUSH1 0x40 MLOAD DUP1 PUSH1 0x60 ADD PUSH1 0x40 MSTORE DUP1 PUSH1 0x1 PUSH1 0xFF AND DUP2 MSTORE PUSH1 0x20 ADD PUSH1 0x2 PUSH1 0xFF AND DUP2 MSTORE PUSH1 0x20 ADD PUSH1 0x3 PUSH1 0xFF AND DUP2 MSTORE POP DUP2 MSTORE PUSH1 0x20 ADD PUSH1 0x40 MLOAD DUP1 PUSH1 0x60 ADD PUSH1 0x40 MSTORE DUP1 PUSH1 0x4 PUSH1 0xFF AND DUP2 MSTORE PUSH1 0x20 ADD PUSH1 0x5 PUSH1 0xFF AND DUP2 MSTORE PUSH1 0x20 ADD PUSH1 0x6 PUSH1 0xFF AND DUP2 MSTORE POP DUP2 MSTORE POP PUSH1 0x2 SWAP1 PUSH1 0x2 PUSH3 0x17D SWAP3 SWAP2 SWAP1 PUSH3 0x244 JUMP JUMPDEST POP CALLVALUE DUP1 ISZERO PUSH3 0x18A JUMPI PUSH0 DUP1 REVERT JUMPDEST POP PUSH3 0x6BA JUMP JUMPDEST DUP3 DUP1 SLOAD DUP3 DUP3 SSTORE SWAP1 PUSH0 MSTORE PUSH1 0x20 PUSH0 KECCAK256 SWAP1 DUP2 ADD SWAP3 DUP3 ISZERO PUSH3 0x1D3 JUMPI SWAP2 PUSH1 0x20 MUL DUP3 ADD JUMPDEST DUP3 DUP2 GT ISZERO PUSH3 0x1D2 JUMPI DUP3 MLOAD DUP3 SWAP1 PUSH1 0xFF AND SWAP1 SSTORE SWAP2 PUSH1 0x20 ADD SWAP2 SWAP1 PUSH1 0x1 ADD SWAP1 PUSH3 0x1B0 JUMP JUMPDEST JUMPDEST POP SWAP1 POP PUSH3 0x1E2 SWAP2 SWAP1 PUSH3 0x2A4 JUMP JUMPDEST POP SWAP1 JUMP JUMPDEST DUP3 DUP1 SLOAD DUP3 DUP3 SSTORE SWAP1 PUSH0 MSTORE PUSH1 0x20 PUSH0 KECCAK256 SWAP1 DUP2 ADD SWAP3 DUP3 ISZERO PUSH3 0x231 JUMPI SWAP2 PUSH1 0x20 MUL DUP3 ADD JUMPDEST DUP3 DUP2 GT ISZERO PUSH3 0x230 JUMPI DUP3 MLOAD DUP3 SWAP1 DUP2 PUSH3 0x21F SWAP2 SWAP1 PUSH3 0x5D6 JUMP JUMPDEST POP SWAP2 PUSH1 0x20 ADD SWAP2 SWAP1 PUSH1 0x1 ADD SWAP1 PUSH3 0x205 JUMP JUMPDEST JUMPDEST POP SWAP1 POP PUSH3 0x240 SWAP2 SWAP1 PUSH3 0x2C1 JUMP JUMPDEST POP SWAP1 JUMP JUMPDEST DUP3 DUP1 SLOAD DUP3 DUP3 SSTORE SWAP1 PUSH0 MSTORE PUSH1 0x20 PUSH0 KECCAK256 SWAP1 DUP2 ADD SWAP3 DUP3 ISZERO PUSH3 0x291 JUMPI SWAP2 PUSH1 0x20 MUL DUP3 ADD JUMPDEST DUP3 DUP2 GT ISZERO PUSH3 0x290 JUMPI DUP3 MLOAD DUP3 SWAP1 PUSH1 0x3 PUSH3 0x27F SWAP3 SWAP2 SWAP1 PUSH3 0x191 JUMP JUMPDEST POP SWAP2 PUSH1 0x20 ADD SWAP2 SWAP1 PUSH1 0x1 ADD SWAP1 PUSH3 0x263 JUMP JUMPDEST JUMPDEST POP SWAP1 POP PUSH3 0x2A0 SWAP2 SWAP1 PUSH3 0x2E8 JUMP JUMPDEST POP SWAP1 JUMP JUMPDEST JUMPDEST DUP1 DUP3 GT ISZERO PUSH3 0x2BD JUMPI PUSH0 DUP2 PUSH0 SWAP1 SSTORE POP PUSH1 0x1 ADD PUSH3 0x2A5 JUMP JUMPDEST POP SWAP1 JUMP JUMPDEST JUMPDEST DUP1 DUP3 GT ISZERO PUSH3 0x2E4 JUMPI PUSH0 DUP2 DUP2 PUSH3 0x2DA SWAP2 SWAP1 PUSH3 0x30F JUMP JUMPDEST POP PUSH1 0x1 ADD PUSH3 0x2C2 JUMP JUMPDEST POP SWAP1 JUMP JUMPDEST JUMPDEST DUP1 DUP3 GT ISZERO PUSH3 0x30B JUMPI PUSH0 DUP2 DUP2 PUSH3 0x301 SWAP2 SWAP1 PUSH3 0x352 JUMP JUMPDEST POP PUSH1 0x1 ADD PUSH3 0x2E9 JUMP JUMPDEST POP SWAP1 JUMP JUMPDEST POP DUP1 SLOAD PUSH3 0x31D SWAP1 PUSH3 0x3D6 JUMP JUMPDEST PUSH0 DUP3 SSTORE DUP1 PUSH1 0x1F LT PUSH3 0x330 JUMPI POP PUSH3 0x34F JUMP JUMPDEST PUSH1 0x1F ADD PUSH1 0x20 SWAP1 DIV SWAP1 PUSH0 MSTORE PUSH1 0x20 PUSH0 KECCAK256 SWAP1 DUP2 ADD SWAP1 PUSH3 0x34E SWAP2 SWAP1 PUSH3 0x2A4 JUMP JUMPDEST JUMPDEST POP JUMP JUMPDEST POP DUP1 SLOAD PUSH0 DUP3 SSTORE SWAP1 PUSH0 MSTORE PUSH1 0x20 PUSH0 KECCAK256 SWAP1 DUP2 ADD SWAP1 PUSH3 0x36F SWAP2 SWAP1 PUSH3 0x2A4 JUMP JUMPDEST POP JUMP JUMPDEST PUSH0 DUP2 MLOAD SWAP1 POP SWAP2 SWAP1 POP JUMP JUMPDEST PUSH32 0x4E487B7100000000000000000000000000000000000000000000000000000000 PUSH0 MSTORE PUSH1 0x41 PUSH1 0x4 MSTORE PUSH1 0x24 PUSH0 REVERT JUMPDEST PUSH32 0x4E487B7100000000000000000000000000000000000000000000000000000000 PUSH0 MSTORE PUSH1 0x22 PUSH1 0x4 MSTORE PUSH1 0x24 PUSH0 REVERT JUMPDEST PUSH0 PUSH1 0x2 DUP3 DIV SWAP1 POP PUSH1 0x1 DUP3 AND DUP1 PUSH3 0x3EE JUMPI PUSH1 0x7F DUP3 AND SWAP2 POP JUMPDEST PUSH1 0x20 DUP3 LT DUP2 SUB PUSH3 0x404 JUMPI PUSH3 0x403 PUSH3 0x3A9 JUMP JUMPDEST JUMPDEST POP SWAP2 SWAP1 POP JUMP JUMPDEST PUSH0 DUP2 SWAP1 POP DUP2 PUSH0 MSTORE PUSH1 0x20 PUSH0 KECCAK256 SWAP1 POP SWAP2 SWAP1 POP JUMP JUMPDEST PUSH0 PUSH1 0x20 PUSH1 0x1F DUP4 ADD DIV SWAP1 POP SWAP2 SWAP1 POP JUMP JUMPDEST PUSH0 DUP3 DUP3 SHL SWAP1 POP SWAP3 SWAP2 POP POP JUMP JUMPDEST PUSH0 PUSH1 0x8 DUP4 MUL PUSH3 0x468 PUSH32 0xFFFFFFFFFFFFFFFFFFFFFFFFFFFFFFFFFFFFFFFFFFFFFFFFFFFFFFFFFFFFFFFF DUP3 PUSH3 0x42B JUMP JUMPDEST PUSH3 0x474 DUP7 DUP4 PUSH3 0x42B JUMP JUMPDEST SWAP6 POP DUP1 NOT DUP5 AND SWAP4 POP DUP1 DUP7 AND DUP5 OR SWAP3 POP POP POP SWAP4 SWAP3 POP POP POP JUMP JUMPDEST PUSH0 DUP2 SWAP1 POP SWAP2 SWAP1 POP JUMP JUMPDEST PUSH0 DUP2 SWAP1 POP SWAP2 SWAP1 POP JUMP JUMPDEST PUSH0 PUSH3 0x4BE PUSH3 0x4B8 PUSH3 0x4B2 DUP5 PUSH3 0x48C JUMP JUMPDEST PUSH3 0x495 JUMP JUMPDEST PUSH3 0x48C JUMP JUMPDEST SWAP1 POP SWAP2 SWAP1 POP JUMP JUMPDEST PUSH0 DUP2 SWAP1 POP SWAP2 SWAP1 POP JUMP JUMPDEST PUSH3 0x4D9 DUP4 PUSH3 0x49E JUMP JUMPDEST PUSH3 0x4F1 PUSH3 0x4E8 DUP3 PUSH3 0x4C5 JUMP JUMPDEST DUP5 DUP5 SLOAD PUSH3 0x437 JUMP JUMPDEST DUP3 SSTORE POP POP POP POP JUMP JUMPDEST PUSH0 SWAP1 JUMP JUMPDEST PUSH3 0x507 PUSH3 0x4F9 JUMP JUMPDEST PUSH3 0x514 DUP2 DUP5 DUP5 PUSH3 0x4CE JUMP JUMPDEST POP POP POP JUMP JUMPDEST JUMPDEST DUP2 DUP2 LT ISZERO PUSH3 0x53B JUMPI PUSH3 0x52F PUSH0 DUP3 PUSH3 0x4FD JUMP JUMPDEST PUSH1 0x1 DUP2 ADD SWAP1 POP PUSH3 0x51A JUMP JUMPDEST POP POP JUMP JUMPDEST PUSH1 0x1F DUP3 GT ISZERO PUSH3 0x58A JUMPI PUSH3 0x554 DUP2 PUSH3 0x40A JUMP JUMPDEST PUSH3 0x55F DUP5 PUSH3 0x41C JUMP JUMPDEST DUP2 ADD PUSH1 0x20 DUP6 LT ISZERO PUSH3 0x56F JUMPI DUP2 SWAP1 POP JUMPDEST PUSH3 0x587 PUSH3 0x57E DUP6 PUSH3 0x41C JUMP JUMPDEST DUP4 ADD DUP3 PUSH3 0x519 JUMP JUMPDEST POP POP JUMPDEST POP POP POP JUMP JUMPDEST PUSH0 DUP3 DUP3 SHR SWAP1 POP SWAP3 SWAP2 POP POP JUMP JUMPDEST PUSH0 PUSH3 0x5AC PUSH0 NOT DUP5 PUSH1 0x8 MUL PUSH3 0x58F JUMP JUMPDEST NOT DUP1 DUP4 AND SWAP2 POP POP SWAP3 SWAP2 POP POP JUMP JUMPDEST PUSH0 PUSH3 0x5C6 DUP4 DUP4 PUSH3 0x59B JUMP JUMPDEST SWAP2 POP DUP3 PUSH1 0x2 MUL DUP3 OR SWAP1 POP SWAP3 SWAP2 POP POP JUMP JUMPDEST PUSH3 0x5E1 DUP3 PUSH3 0x372 JUMP JUMPDEST PUSH8 0xFFFFFFFFFFFFFFFF DUP2 GT ISZERO PUSH3 0x5FD JUMPI PUSH3 0x5FC PUSH3 0x37C JUMP JUMPDEST JUMPDEST PUSH3 0x609 DUP3 SLOAD PUSH3 0x3D6 JUMP JUMPDEST PUSH3 0x616 DUP3 DUP3 DUP6 PUSH3 0x53F JUMP JUMPDEST PUSH0 PUSH1 0x20 SWAP1 POP PUSH1 0x1F DUP4 GT PUSH1 0x1 DUP2 EQ PUSH3 0x64C JUMPI PUSH0 DUP5 ISZERO PUSH3 0x637 JUMPI DUP3 DUP8 ADD MLOAD SWAP1 POP JUMPDEST PUSH3 0x643 DUP6 DUP3 PUSH3 0x5B9 JUMP JUMPDEST DUP7 SSTORE POP PUSH3 0x6B2 JUMP JUMPDEST PUSH1 0x1F NOT DUP5 AND PUSH3 0x65C DUP7 PUSH3 0x40A JUMP JUMPDEST PUSH0 JUMPDEST DUP3 DUP2 LT ISZERO PUSH3 0x685 JUMPI DUP5 DUP10 ADD MLOAD DUP3 SSTORE PUSH1 0x1 DUP3 ADD SWAP2 POP PUSH1 0x20 DUP6 ADD SWAP5 POP PUSH1 0x20 DUP2 ADD SWAP1 POP PUSH3 0x65E JUMP JUMPDEST DUP7 DUP4 LT ISZERO PUSH3 0x6A5 JUMPI DUP5 DUP10 ADD MLOAD PUSH3 0x6A1 PUSH1 0x1F DUP10 AND DUP3 PUSH3 0x59B JUMP JUMPDEST DUP4 SSTORE POP JUMPDEST PUSH1 0x1 PUSH1 0x2 DUP9 MUL ADD DUP9 SSTORE POP POP POP JUMPDEST POP POP POP POP POP POP JUMP JUMPDEST PUSH2 0x931 DUP1 PUSH3 0x6C8 PUSH0 CODECOPY PUSH0 RETURN INVALID PUSH1 0x80 PUSH1 0x40 MSTORE CALLVALUE DUP1 ISZERO PUSH2 0xF JUMPI PUSH0 DUP1 REVERT JUMPDEST POP PUSH1 0x4 CALLDATASIZE LT PUSH2 0x60 JUMPI PUSH0 CALLDATALOAD PUSH1 0xE0 SHR DUP1 PUSH4 0x849CC99 EQ PUSH2 0x64 JUMPI DUP1 PUSH4 0x3A5FBAAA EQ PUSH2 0x82 JUMPI DUP1 PUSH4 0x57D56338 EQ PUSH2 0x9E JUMPI DUP1 PUSH4 0x6987B1FB EQ PUSH2 0xCE JUMPI DUP1 PUSH4 0x71E5EE5F EQ PUSH2 0xFE JUMPI DUP1 PUSH4 0xC4172162 EQ PUSH2 0x12E JUMPI JUMPDEST PUSH0 DUP1 REVERT JUMPDEST PUSH2 0x6C PUSH2 0x15E JUMP JUMPDEST PUSH1 0x40 MLOAD PUSH2 0x79 SWAP2 SWAP1 PUSH2 0x358 JUMP JUMPDEST PUSH1 0x40 MLOAD DUP1 SWAP2 SUB SWAP1 RETURN JUMPDEST PUSH2 0x9C PUSH1 0x4 DUP1 CALLDATASIZE SUB DUP2 ADD SWAP1 PUSH2 0x97 SWAP2 SWAP1 PUSH2 0x4BE JUMP JUMPDEST PUSH2 0x16A JUMP JUMPDEST STOP JUMPDEST PUSH2 0xB8 PUSH1 0x4 DUP1 CALLDATASIZE SUB DUP2 ADD SWAP1 PUSH2 0xB3 SWAP2 SWAP1 PUSH2 0x52F JUMP JUMPDEST PUSH2 0x19F JUMP JUMPDEST PUSH1 0x40 MLOAD PUSH2 0xC5 SWAP2 SWAP1 PUSH2 0x358 JUMP JUMPDEST PUSH1 0x40 MLOAD DUP1 SWAP2 SUB SWAP1 RETURN JUMPDEST PUSH2 0xE8 PUSH1 0x4 DUP1 CALLDATASIZE SUB DUP2 ADD SWAP1 PUSH2 0xE3 SWAP2 SWAP1 PUSH2 0x56D JUMP JUMPDEST PUSH2 0x1D5 JUMP JUMPDEST PUSH1 0x40 MLOAD PUSH2 0xF5 SWAP2 SWAP1 PUSH2 0x612 JUMP JUMPDEST PUSH1 0x40 MLOAD DUP1 SWAP2 SUB SWAP1 RETURN JUMPDEST PUSH2 0x118 PUSH1 0x4 DUP1 CALLDATASIZE SUB DUP2 ADD SWAP1 PUSH2 0x113 SWAP2 SWAP1 PUSH2 0x56D JUMP JUMPDEST PUSH2 0x27B JUMP JUMPDEST PUSH1 0x40 MLOAD PUSH2 0x125 SWAP2 SWAP1 PUSH2 0x358 JUMP JUMPDEST PUSH1 0x40 MLOAD DUP1 SWAP2 SUB SWAP1 RETURN JUMPDEST PUSH2 0x148 PUSH1 0x4 DUP1 CALLDATASIZE SUB DUP2 ADD SWAP1 PUSH2 0x143 SWAP2 SWAP1 PUSH2 0x56D JUMP JUMPDEST PUSH2 0x29A JUMP JUMPDEST PUSH1 0x40 MLOAD PUSH2 0x155 SWAP2 SWAP1 PUSH2 0x612 JUMP JUMPDEST PUSH1 0x40 MLOAD DUP1 SWAP2 SUB SWAP1 RETURN JUMPDEST PUSH0 PUSH1 0x3 DUP1 SLOAD SWAP1 POP SWAP1 POP SWAP1 JUMP JUMPDEST PUSH1 0x3 DUP2 SWAP1 DUP1 PUSH1 0x1 DUP2 SLOAD ADD DUP1 DUP3 SSTORE DUP1 SWAP2 POP POP PUSH1 0x1 SWAP1 SUB SWAP1 PUSH0 MSTORE PUSH1 0x20 PUSH0 KECCAK256 ADD PUSH0 SWAP1 SWAP2 SWAP1 SWAP2 SWAP1 SWAP2 POP SWAP1 DUP2 PUSH2 0x19B SWAP2 SWAP1 PUSH2 0x82C JUMP JUMPDEST POP POP JUMP JUMPDEST PUSH1 0x2 DUP3 DUP2 SLOAD DUP2 LT PUSH2 0x1AE JUMPI PUSH0 DUP1 REVERT JUMPDEST SWAP1 PUSH0 MSTORE PUSH1 0x20 PUSH0 KECCAK256 ADD DUP2 DUP2 SLOAD DUP2 LT PUSH2 0x1C3 JUMPI PUSH0 DUP1 REVERT JUMPDEST SWAP1 PUSH0 MSTORE PUSH1 0x20 PUSH0 KECCAK256 ADD PUSH0 SWAP2 POP SWAP2 POP POP SLOAD DUP2 JUMP JUMPDEST PUSH1 0x3 DUP2 DUP2 SLOAD DUP2 LT PUSH2 0x1E4 JUMPI PUSH0 DUP1 REVERT JUMPDEST SWAP1 PUSH0 MSTORE PUSH1 0x20 PUSH0 KECCAK256 ADD PUSH0 SWAP2 POP SWAP1 POP DUP1 SLOAD PUSH2 0x1FC SWAP1 PUSH2 0x65F JUMP JUMPDEST DUP1 PUSH1 0x1F ADD PUSH1 0x20 DUP1 SWAP2 DIV MUL PUSH1 0x20 ADD PUSH1 0x40 MLOAD SWAP1 DUP2 ADD PUSH1 0x40 MSTORE DUP1 SWAP3 SWAP2 SWAP1 DUP2 DUP2 MSTORE PUSH1 0x20 ADD DUP3 DUP1 SLOAD PUSH2 0x228 SWAP1 PUSH2 0x65F JUMP JUMPDEST DUP1 ISZERO PUSH2 0x273 JUMPI DUP1 PUSH1 0x1F LT PUSH2 0x24A JUMPI PUSH2 0x100 DUP1 DUP4 SLOAD DIV MUL DUP4 MSTORE SWAP2 PUSH1 0x20 ADD SWAP2 PUSH2 0x273 JUMP JUMPDEST DUP3 ADD SWAP2 SWAP1 PUSH0 MSTORE PUSH1 0x20 PUSH0 KECCAK256 SWAP1 JUMPDEST DUP2 SLOAD DUP2 MSTORE SWAP1 PUSH1 0x1 ADD SWAP1 PUSH1 0x20 ADD DUP1 DUP4 GT PUSH2 0x256 JUMPI DUP3 SWAP1 SUB PUSH1 0x1F AND DUP3 ADD SWAP2 JUMPDEST POP POP POP POP POP DUP2 JUMP JUMPDEST PUSH0 DUP2 DUP2 SLOAD DUP2 LT PUSH2 0x289 JUMPI PUSH0 DUP1 REVERT JUMPDEST SWAP1 PUSH0 MSTORE PUSH1 0x20 PUSH0 KECCAK256 ADD PUSH0 SWAP2 POP SWAP1 POP SLOAD DUP2 JUMP JUMPDEST PUSH1 0x1 DUP2 DUP2 SLOAD DUP2 LT PUSH2 0x2A9 JUMPI PUSH0 DUP1 REVERT JUMPDEST SWAP1 PUSH0 MSTORE PUSH1 0x20 PUSH0 KECCAK256 ADD PUSH0 SWAP2 POP SWAP1 POP DUP1 SLOAD PUSH2 0x2C1 SWAP1 PUSH2 0x65F JUMP JUMPDEST DUP1 PUSH1 0x1F ADD PUSH1 0x20 DUP1 SWAP2 DIV MUL PUSH1 0x20 ADD PUSH1 0x40 MLOAD SWAP1 DUP2 ADD PUSH1 0x40 MSTORE DUP1 SWAP3 SWAP2 SWAP1 DUP2 DUP2 MSTORE PUSH1 0x20 ADD DUP3 DUP1 SLOAD PUSH2 0x2ED SWAP1 PUSH2 0x65F JUMP JUMPDEST DUP1 ISZERO PUSH2 0x338 JUMPI DUP1 PUSH1 0x1F LT PUSH2 0x30F JUMPI PUSH2 0x100 DUP1 DUP4 SLOAD DIV MUL DUP4 MSTORE SWAP2 PUSH1 0x20 ADD SWAP2 PUSH2 0x338 JUMP JUMPDEST DUP3 ADD SWAP2 SWAP1 PUSH0 MSTORE PUSH1 0x20 PUSH0 KECCAK256 SWAP1 JUMPDEST DUP2 SLOAD DUP2 MSTORE SWAP1 PUSH1 0x1 ADD SWAP1 PUSH1 0x20 ADD DUP1 DUP4 GT PUSH2 0x31B JUMPI DUP3 SWAP1 SUB PUSH1 0x1F AND DUP3 ADD SWAP2 JUMPDEST POP POP POP POP POP DUP2 JUMP JUMPDEST PUSH0 DUP2 SWAP1 POP SWAP2 SWAP1 POP JUMP JUMPDEST PUSH2 0x352 DUP2 PUSH2 0x340 JUMP JUMPDEST DUP3 MSTORE POP POP JUMP JUMPDEST PUSH0 PUSH1 0x20 DUP3 ADD SWAP1 POP PUSH2 0x36B PUSH0 DUP4 ADD DUP5 PUSH2 0x349 JUMP JUMPDEST SWAP3 SWAP2 POP POP JUMP JUMPDEST PUSH0 PUSH1 0x40 MLOAD SWAP1 POP SWAP1 JUMP JUMPDEST PUSH0 DUP1 REVERT JUMPDEST PUSH0 DUP1 REVERT JUMPDEST PUSH0 DUP1 REVERT JUMPDEST PUSH0 DUP1 REVERT JUMPDEST PUSH0 PUSH1 0x1F NOT PUSH1 0x1F DUP4 ADD AND SWAP1 POP SWAP2 SWAP1 POP JUMP JUMPDEST PUSH32 0x4E487B7100000000000000000000000000000000000000000000000000000000 PUSH0 MSTORE PUSH1 0x41 PUSH1 0x4 MSTORE PUSH1 0x24 PUSH0 REVERT JUMPDEST PUSH2 0x3D0 DUP3 PUSH2 0x38A JUMP JUMPDEST DUP2 ADD DUP2 DUP2 LT PUSH8 0xFFFFFFFFFFFFFFFF DUP3 GT OR ISZERO PUSH2 0x3EF JUMPI PUSH2 0x3EE PUSH2 0x39A JUMP JUMPDEST JUMPDEST DUP1 PUSH1 0x40 MSTORE POP POP POP JUMP JUMPDEST PUSH0 PUSH2 0x401 PUSH2 0x371 JUMP JUMPDEST SWAP1 POP PUSH2 0x40D DUP3 DUP3 PUSH2 0x3C7 JUMP JUMPDEST SWAP2 SWAP1 POP JUMP JUMPDEST PUSH0 PUSH8 0xFFFFFFFFFFFFFFFF DUP3 GT ISZERO PUSH2 0x42C JUMPI PUSH2 0x42B PUSH2 0x39A JUMP JUMPDEST JUMPDEST PUSH2 0x435 DUP3 PUSH2 0x38A JUMP JUMPDEST SWAP1 POP PUSH1 0x20 DUP2 ADD SWAP1 POP SWAP2 SWAP1 POP JUMP JUMPDEST DUP3 DUP2 DUP4 CALLDATACOPY PUSH0 DUP4 DUP4 ADD MSTORE POP POP POP JUMP JUMPDEST PUSH0 PUSH2 0x462 PUSH2 0x45D DUP5 PUSH2 0x412 JUMP JUMPDEST PUSH2 0x3F8 JUMP JUMPDEST SWAP1 POP DUP3 DUP2 MSTORE PUSH1 0x20 DUP2 ADD DUP5 DUP5 DUP5 ADD GT ISZERO PUSH2 0x47E JUMPI PUSH2 0x47D PUSH2 0x386 JUMP JUMPDEST JUMPDEST PUSH2 0x489 DUP5 DUP3 DUP6 PUSH2 0x442 JUMP JUMPDEST POP SWAP4 SWAP3 POP POP POP JUMP JUMPDEST PUSH0 DUP3 PUSH1 0x1F DUP4 ADD SLT PUSH2 0x4A5 JUMPI PUSH2 0x4A4 PUSH2 0x382 JUMP JUMPDEST JUMPDEST DUP2 CALLDATALOAD PUSH2 0x4B5 DUP5 DUP3 PUSH1 0x20 DUP7 ADD PUSH2 0x450 JUMP JUMPDEST SWAP2 POP POP SWAP3 SWAP2 POP POP JUMP JUMPDEST PUSH0 PUSH1 0x20 DUP3 DUP5 SUB SLT ISZERO PUSH2 0x4D3 JUMPI PUSH2 0x4D2 PUSH2 0x37A JUMP JUMPDEST JUMPDEST PUSH0 DUP3 ADD CALLDATALOAD PUSH8 0xFFFFFFFFFFFFFFFF DUP2 GT ISZERO PUSH2 0x4F0 JUMPI PUSH2 0x4EF PUSH2 0x37E JUMP JUMPDEST JUMPDEST PUSH2 0x4FC DUP5 DUP3 DUP6 ADD PUSH2 0x491 JUMP JUMPDEST SWAP2 POP POP SWAP3 SWAP2 POP POP JUMP JUMPDEST PUSH2 0x50E DUP2 PUSH2 0x340 JUMP JUMPDEST DUP2 EQ PUSH2 0x518 JUMPI PUSH0 DUP1 REVERT JUMPDEST POP JUMP JUMPDEST PUSH0 DUP2 CALLDATALOAD SWAP1 POP PUSH2 0x529 DUP2 PUSH2 0x505 JUMP JUMPDEST SWAP3 SWAP2 POP POP JUMP JUMPDEST PUSH0 DUP1 PUSH1 0x40 DUP4 DUP6 SUB SLT ISZERO PUSH2 0x545 JUMPI PUSH2 0x544 PUSH2 0x37A JUMP JUMPDEST JUMPDEST PUSH0 PUSH2 0x552 DUP6 DUP3 DUP7 ADD PUSH2 0x51B JUMP JUMPDEST SWAP3 POP POP PUSH1 0x20 PUSH2 0x563 DUP6 DUP3 DUP7 ADD PUSH2 0x51B JUMP JUMPDEST SWAP2 POP POP SWAP3 POP SWAP3 SWAP1 POP JUMP JUMPDEST PUSH0 PUSH1 0x20 DUP3 DUP5 SUB SLT ISZERO PUSH2 0x582 JUMPI PUSH2 0x581 PUSH2 0x37A JUMP JUMPDEST JUMPDEST PUSH0 PUSH2 0x58F DUP5 DUP3 DUP6 ADD PUSH2 0x51B JUMP JUMPDEST SWAP2 POP POP SWAP3 SWAP2 POP POP JUMP JUMPDEST PUSH0 DUP2 MLOAD SWAP1 POP SWAP2 SWAP1 POP JUMP JUMPDEST PUSH0 DUP3 DUP3 MSTORE PUSH1 0x20 DUP3 ADD SWAP1 POP SWAP3 SWAP2 POP POP JUMP JUMPDEST PUSH0 JUMPDEST DUP4 DUP2 LT ISZERO PUSH2 0x5CF JUMPI DUP1 DUP3 ADD MLOAD DUP2 DUP5 ADD MSTORE PUSH1 0x20 DUP2 ADD SWAP1 POP PUSH2 0x5B4 JUMP JUMPDEST PUSH0 DUP5 DUP5 ADD MSTORE POP POP POP POP JUMP JUMPDEST PUSH0 PUSH2 0x5E4 DUP3 PUSH2 0x598 JUMP JUMPDEST PUSH2 0x5EE DUP2 DUP6 PUSH2 0x5A2 JUMP JUMPDEST SWAP4 POP PUSH2 0x5FE DUP2 DUP6 PUSH1 0x20 DUP7 ADD PUSH2 0x5B2 JUMP JUMPDEST PUSH2 0x607 DUP2 PUSH2 0x38A JUMP JUMPDEST DUP5 ADD SWAP2 POP POP SWAP3 SWAP2 POP POP JUMP JUMPDEST PUSH0 PUSH1 0x20 DUP3 ADD SWAP1 POP DUP2 DUP2 SUB PUSH0 DUP4 ADD MSTORE PUSH2 0x62A DUP2 DUP5 PUSH2 0x5DA JUMP JUMPDEST SWAP1 POP SWAP3 SWAP2 POP POP JUMP JUMPDEST PUSH32 0x4E487B7100000000000000000000000000000000000000000000000000000000 PUSH0 MSTORE PUSH1 0x22 PUSH1 0x4 MSTORE PUSH1 0x24 PUSH0 REVERT JUMPDEST PUSH0 PUSH1 0x2 DUP3 DIV SWAP1 POP PUSH1 0x1 DUP3 AND DUP1 PUSH2 0x676 JUMPI PUSH1 0x7F DUP3 AND SWAP2 POP JUMPDEST PUSH1 0x20 DUP3 LT DUP2 SUB PUSH2 0x689 JUMPI PUSH2 0x688 PUSH2 0x632 JUMP JUMPDEST JUMPDEST POP SWAP2 SWAP1 POP JUMP JUMPDEST PUSH0 DUP2 SWAP1 POP DUP2 PUSH0 MSTORE PUSH1 0x20 PUSH0 KECCAK256 SWAP1 POP SWAP2 SWAP1 POP JUMP JUMPDEST PUSH0 PUSH1 0x20 PUSH1 0x1F DUP4 ADD DIV SWAP1 POP SWAP2 SWAP1 POP JUMP JUMPDEST PUSH0 DUP3 DUP3 SHL SWAP1 POP SWAP3 SWAP2 POP POP JUMP JUMPDEST PUSH0 PUSH1 0x8 DUP4 MUL PUSH2 0x6EB PUSH32 0xFFFFFFFFFFFFFFFFFFFFFFFFFFFFFFFFFFFFFFFFFFFFFFFFFFFFFFFFFFFFFFFF DUP3 PUSH2 0x6B0 JUMP JUMPDEST PUSH2 0x6F5 DUP7 DUP4 PUSH2 0x6B0 JUMP JUMPDEST SWAP6 POP DUP1 NOT DUP5 AND SWAP4 POP DUP1 DUP7 AND DUP5 OR SWAP3 POP POP POP SWAP4 SWAP3 POP POP POP JUMP JUMPDEST PUSH0 DUP2 SWAP1 POP SWAP2 SWAP1 POP JUMP JUMPDEST PUSH0 PUSH2 0x730 PUSH2 0x72B PUSH2 0x726 DUP5 PUSH2 0x340 JUMP JUMPDEST PUSH2 0x70D JUMP JUMPDEST PUSH2 0x340 JUMP JUMPDEST SWAP1 POP SWAP2 SWAP1 POP JUMP JUMPDEST PUSH0 DUP2 SWAP1 POP SWAP2 SWAP1 POP JUMP JUMPDEST PUSH2 0x749 DUP4 PUSH2 0x716 JUMP JUMPDEST PUSH2 0x75D PUSH2 0x755 DUP3 PUSH2 0x737 JUMP JUMPDEST DUP5 DUP5 SLOAD PUSH2 0x6BC JUMP JUMPDEST DUP3 SSTORE POP POP POP POP JUMP JUMPDEST PUSH0 SWAP1 JUMP JUMPDEST PUSH2 0x771 PUSH2 0x765 JUMP JUMPDEST PUSH2 0x77C DUP2 DUP5 DUP5 PUSH2 0x740 JUMP JUMPDEST POP POP POP JUMP JUMPDEST JUMPDEST DUP2 DUP2 LT ISZERO PUSH2 0x79F JUMPI PUSH2 0x794 PUSH0 DUP3 PUSH2 0x769 JUMP JUMPDEST PUSH1 0x1 DUP2 ADD SWAP1 POP PUSH2 0x782 JUMP JUMPDEST POP POP JUMP JUMPDEST PUSH1 0x1F DUP3 GT ISZERO PUSH2 0x7E4 JUMPI PUSH2 0x7B5 DUP2 PUSH2 0x68F JUMP JUMPDEST PUSH2 0x7BE DUP5 PUSH2 0x6A1 JUMP JUMPDEST DUP2 ADD PUSH1 0x20 DUP6 LT ISZERO PUSH2 0x7CD JUMPI DUP2 SWAP1 POP JUMPDEST PUSH2 0x7E1 PUSH2 0x7D9 DUP6 PUSH2 0x6A1 JUMP JUMPDEST DUP4 ADD DUP3 PUSH2 0x781 JUMP JUMPDEST POP POP JUMPDEST POP POP POP JUMP JUMPDEST PUSH0 DUP3 DUP3 SHR SWAP1 POP SWAP3 SWAP2 POP POP JUMP JUMPDEST PUSH0 PUSH2 0x804 PUSH0 NOT DUP5 PUSH1 0x8 MUL PUSH2 0x7E9 JUMP JUMPDEST NOT DUP1 DUP4 AND SWAP2 POP POP SWAP3 SWAP2 POP POP JUMP JUMPDEST PUSH0 PUSH2 0x81C DUP4 DUP4 PUSH2 0x7F5 JUMP JUMPDEST SWAP2 POP DUP3 PUSH1 0x2 MUL DUP3 OR SWAP1 POP SWAP3 SWAP2 POP POP JUMP JUMPDEST PUSH2 0x835 DUP3 PUSH2 0x598 JUMP JUMPDEST PUSH8 0xFFFFFFFFFFFFFFFF DUP2 GT ISZERO PUSH2 0x84E JUMPI PUSH2 0x84D PUSH2 0x39A JUMP JUMPDEST JUMPDEST PUSH2 0x858 DUP3 SLOAD PUSH2 0x65F JUMP JUMPDEST PUSH2 0x863 DUP3 DUP3 DUP6 PUSH2 0x7A3 JUMP JUMPDEST PUSH0 PUSH1 0x20 SWAP1 POP PUSH1 0x1F DUP4 GT PUSH1 0x1 DUP2 EQ PUSH2 0x894 JUMPI PUSH0 DUP5 ISZERO PUSH2 0x882 JUMPI DUP3 DUP8 ADD MLOAD SWAP1 POP JUMPDEST PUSH2 0x88C DUP6 DUP3 PUSH2 0x811 JUMP JUMPDEST DUP7 SSTORE POP PUSH2 0x8F3 JUMP JUMPDEST PUSH1 0x1F NOT DUP5 AND PUSH2 0x8A2 DUP7 PUSH2 0x68F JUMP JUMPDEST PUSH0 JUMPDEST DUP3 DUP2 LT ISZERO PUSH2 0x8C9 JUMPI DUP5 DUP10 ADD MLOAD DUP3 SSTORE PUSH1 0x1 DUP3 ADD SWAP2 POP PUSH1 0x20 DUP6 ADD SWAP5 POP PUSH1 0x20 DUP2 ADD SWAP1 POP PUSH2 0x8A4 JUMP JUMPDEST DUP7 DUP4 LT ISZERO PUSH2 0x8E6 JUMPI DUP5 DUP10 ADD MLOAD PUSH2 0x8E2 PUSH1 0x1F DUP10 AND DUP3 PUSH2 0x7F5 JUMP JUMPDEST DUP4 SSTORE POP JUMPDEST PUSH1 0x1 PUSH1 0x2 DUP9 MUL ADD DUP9 SSTORE POP POP POP JUMPDEST POP POP POP POP POP POP JUMP INVALID LOG2 PUSH5 0x6970667358 0x22 SLT KECCAK256 0x4D DUP15 0x28 0xFC ADD 0xC3 PUSH14 0x24EF0FCCC633BD4CDD37F051270A PUSH11 0x22745C8D2D23D4ECE59164 PUSH20 0x6F6C634300081500330000000000000000000000 "
		},
		"gasEstimates": {
			"creation": {
				"codeDepositCost": "470600",
				"executionCost": "infinite",
				"totalCost": "infinite"
			},
			"external": {
				"addValue(string)": "infinite",
				"arr(uint256)": "infinite",
				"arr1(uint256)": "infinite",
				"fruits(uint256)": "infinite",
				"getArrayLength()": "2418",
				"twodArray(uint256,uint256)": "infinite"
			}
		},
		"methodIdentifiers": {
			"addValue(string)": "3a5fbaaa",
			"arr(uint256)": "71e5ee5f",
			"arr1(uint256)": "6987b1fb",
			"fruits(uint256)": "c4172162",
			"getArrayLength()": "0849cc99",
			"twodArray(uint256,uint256)": "57d56338"
		}
	},
	"abi": [
		{
			"inputs": [
				{
					"internalType": "string",
					"name": "_value",
					"type": "string"
				}
			],
			"name": "addValue",
			"outputs": [],
			"stateMutability": "nonpayable",
			"type": "function"
		},
		{
			"inputs": [
				{
					"internalType": "uint256",
					"name": "",
					"type": "uint256"
				}
			],
			"name": "arr",
			"outputs": [
				{
					"internalType": "uint256",
					"name": "",
					"type": "uint256"
				}
			],
			"stateMutability": "view",
			"type": "function"
		},
		{
			"inputs": [
				{
					"internalType": "uint256",
					"name": "",
					"type": "uint256"
				}
			],
			"name": "arr1",
			"outputs": [
				{
					"internalType": "string",
					"name": "",
					"type": "string"
				}
			],
			"stateMutability": "view",
			"type": "function"
		},
		{
			"inputs": [
				{
					"internalType": "uint256",
					"name": "",
					"type": "uint256"
				}
			],
			"name": "fruits",
			"outputs": [
				{
					"internalType": "string",
					"name": "",
					"type": "string"
				}
			],
			"stateMutability": "view",
			"type": "function"
		},
		{
			"inputs": [],
			"name": "getArrayLength",
			"outputs": [
				{
					"internalType": "uint256",
					"name": "",
					"type": "uint256"
				}
			],
			"stateMutability": "view",
			"type": "function"
		},
		{
			"inputs": [
				{
					"internalType": "uint256",
					"name": "",
					"type": "uint256"
				},
				{
					"internalType": "uint256",
					"name": "",
					"type": "uint256"
				}
			],
			"name": "twodArray",
			"outputs": [
				{
					"internalType": "uint256",
					"name": "",
					"type": "uint256"
				}
			],
			"stateMutability": "view",
			"type": "function"
		}
	]
}